###############################################################################
#                                                                             #
# IAR C/C++ Compiler V8.10.1.10194/W32 for 8051         23/May/2023  21:49:46 #
# Copyright 2004-2011 IAR Systems AB.                                         #
#                                                                             #
#    Core               =  plain                                              #
#    Code model         =  banked                                             #
#    Data model         =  large                                              #
#    Calling convention =  xdata reentrant                                    #
#    Constant location  =  data_rom                                           #
#    Dptr setup         =  1,16                                               #
#    Source file        =  C:\Users\PC\Desktop\ZStack-2.5.1a\Projects\zstack\ #
#                          Samples\GraduateApp\Source\light.c                 #
#    Command line       =  -f C:\Users\PC\Desktop\ZStack-2.5.1a\Projects\zsta #
#                          ck\Samples\GraduateApp\CC2530DB\..\..\..\Tools\CC2 #
#                          530DB\f8wEndev.cfg (-DCPU32MHZ -DROOT=__near_func  #
#                          -DMAC_CFG_TX_DATA_MAX=3 -DMAC_CFG_TX_MAX=6         #
#                          -DMAC_CFG_RX_MAX=3) -f C:\Users\PC\Desktop\ZStack- #
#                          2.5.1a\Projects\zstack\Samples\GraduateApp\CC2530D #
#                          B\..\..\..\Tools\CC2530DB\f8wConfig.cfg            #
#                          (-DZIGBEEPRO -DSECURE=0 -DZG_SECURE_DYNAMIC=0      #
#                          -DREFLECTOR -DDEFAULT_CHANLIST=0x00000800          #
#                          -DZDAPP_CONFIG_PAN_ID=0xFFF1                       #
#                          -DNWK_START_DELAY=100 -DEXTENDED_JOINING_RANDOM_MA #
#                          SK=0x007F -DBEACON_REQUEST_DELAY=100               #
#                          -DBEACON_REQ_DELAY_MASK=0x00FF                     #
#                          -DLINK_STATUS_JITTER_MASK=0x007F                   #
#                          -DROUTE_EXPIRY_TIME=30 -DAPSC_ACK_WAIT_DURATION_PO #
#                          LLED=3000 -DNWK_INDIRECT_MSG_TIMEOUT=7             #
#                          -DMAX_RREQ_ENTRIES=8 -DAPSC_MAX_FRAME_RETRIES=3    #
#                          -DNWK_MAX_DATA_RETRIES=2                           #
#                          -DMAX_POLL_FAILURE_RETRIES=2 -DMAX_BCAST=9         #
#                          -DAPS_MAX_GROUPS=16 -DMAX_RTG_ENTRIES=40           #
#                          -DNWK_MAX_BINDING_ENTRIES=4                        #
#                          -DMAX_BINDING_CLUSTER_IDS=4 "-DDEFAULT_KEY={0x01,  #
#                          0x03, 0x05, 0x07, 0x09, 0x0B, 0x0D, 0x0F, 0x00,    #
#                          0x02, 0x04, 0x06, 0x08, 0x0A, 0x0C, 0x0D}"         #
#                          -DMAC_MAX_FRAME_SIZE=116                           #
#                          -DZDNWKMGR_MIN_TRANSMISSIONS=20 "-DCONST=const     #
#                          __code" -DGENERIC=__generic                        #
#                          -DRFD_RCVC_ALWAYS_ON=FALSE -DPOLL_RATE=1000        #
#                          -DQUEUED_POLL_RATE=100 -DRESPONSE_POLL_RATE=100)   #
#                          -DREJOIN_POLL_RATE=440 C:\Users\PC\Desktop\ZStack- #
#                          2.5.1a\Projects\zstack\Samples\GraduateApp\Source\ #
#                          light.c -D NWK_AUTO_POLL -D ZTOOL_P1 -D MT_TASK    #
#                          -D MT_SYS_FUNC -D MT_ZDO_FUNC -D                   #
#                          LCD_SUPPORTED=DEBUG -lC C:\Users\PC\Desktop\ZStack #
#                          -2.5.1a\Projects\zstack\Samples\GraduateApp\CC2530 #
#                          DB\EndDeviceEB\List\ -lA                           #
#                          C:\Users\PC\Desktop\ZStack-2.5.1a\Projects\zstack\ #
#                          Samples\GraduateApp\CC2530DB\EndDeviceEB\List\     #
#                          --diag_suppress Pe001,Pa010 -o                     #
#                          C:\Users\PC\Desktop\ZStack-2.5.1a\Projects\zstack\ #
#                          Samples\GraduateApp\CC2530DB\EndDeviceEB\Obj\ -e   #
#                          --no_code_motion --debug --core=plain --dptr=16,1  #
#                          --data_model=large --code_model=banked             #
#                          --calling_convention=xdata_reentrant               #
#                          --place_constants=data_rom --nr_virtual_regs 16    #
#                          -I C:\Users\PC\Desktop\ZStack-2.5.1a\Projects\zsta #
#                          ck\Samples\GraduateApp\CC2530DB\ -I                #
#                          C:\Users\PC\Desktop\ZStack-2.5.1a\Projects\zstack\ #
#                          Samples\GraduateApp\CC2530DB\..\Source\ -I         #
#                          C:\Users\PC\Desktop\ZStack-2.5.1a\Projects\zstack\ #
#                          Samples\GraduateApp\CC2530DB\..\..\..\ZMain\TI2530 #
#                          DB\ -I C:\Users\PC\Desktop\ZStack-2.5.1a\Projects\ #
#                          zstack\Samples\GraduateApp\CC2530DB\..\..\..\..\.. #
#                          \Components\hal\include\ -I                        #
#                          C:\Users\PC\Desktop\ZStack-2.5.1a\Projects\zstack\ #
#                          Samples\GraduateApp\CC2530DB\..\..\..\..\..\Compon #
#                          ents\hal\target\CC2530EB\ -I                       #
#                          C:\Users\PC\Desktop\ZStack-2.5.1a\Projects\zstack\ #
#                          Samples\GraduateApp\CC2530DB\..\..\..\..\..\Compon #
#                          ents\mac\include\ -I C:\Users\PC\Desktop\ZStack-2. #
#                          5.1a\Projects\zstack\Samples\GraduateApp\CC2530DB\ #
#                          ..\..\..\..\..\Components\mac\high_level\ -I       #
#                          C:\Users\PC\Desktop\ZStack-2.5.1a\Projects\zstack\ #
#                          Samples\GraduateApp\CC2530DB\..\..\..\..\..\Compon #
#                          ents\mac\low_level\srf04\ -I                       #
#                          C:\Users\PC\Desktop\ZStack-2.5.1a\Projects\zstack\ #
#                          Samples\GraduateApp\CC2530DB\..\..\..\..\..\Compon #
#                          ents\mac\low_level\srf04\single_chip\ -I           #
#                          C:\Users\PC\Desktop\ZStack-2.5.1a\Projects\zstack\ #
#                          Samples\GraduateApp\CC2530DB\..\..\..\..\..\Compon #
#                          ents\mt\ -I C:\Users\PC\Desktop\ZStack-2.5.1a\Proj #
#                          ects\zstack\Samples\GraduateApp\CC2530DB\..\..\..\ #
#                          ..\..\Components\osal\include\ -I                  #
#                          C:\Users\PC\Desktop\ZStack-2.5.1a\Projects\zstack\ #
#                          Samples\GraduateApp\CC2530DB\..\..\..\..\..\Compon #
#                          ents\services\saddr\ -I C:\Users\PC\Desktop\ZStack #
#                          -2.5.1a\Projects\zstack\Samples\GraduateApp\CC2530 #
#                          DB\..\..\..\..\..\Components\services\sdata\ -I    #
#                          C:\Users\PC\Desktop\ZStack-2.5.1a\Projects\zstack\ #
#                          Samples\GraduateApp\CC2530DB\..\..\..\..\..\Compon #
#                          ents\stack\af\ -I C:\Users\PC\Desktop\ZStack-2.5.1 #
#                          a\Projects\zstack\Samples\GraduateApp\CC2530DB\..\ #
#                          ..\..\..\..\Components\stack\nwk\ -I               #
#                          C:\Users\PC\Desktop\ZStack-2.5.1a\Projects\zstack\ #
#                          Samples\GraduateApp\CC2530DB\..\..\..\..\..\Compon #
#                          ents\stack\sapi\ -I C:\Users\PC\Desktop\ZStack-2.5 #
#                          .1a\Projects\zstack\Samples\GraduateApp\CC2530DB\. #
#                          .\..\..\..\..\Components\stack\sec\ -I             #
#                          C:\Users\PC\Desktop\ZStack-2.5.1a\Projects\zstack\ #
#                          Samples\GraduateApp\CC2530DB\..\..\..\..\..\Compon #
#                          ents\stack\sys\ -I C:\Users\PC\Desktop\ZStack-2.5. #
#                          1a\Projects\zstack\Samples\GraduateApp\CC2530DB\.. #
#                          \..\..\..\..\Components\stack\zdo\ -I              #
#                          C:\Users\PC\Desktop\ZStack-2.5.1a\Projects\zstack\ #
#                          Samples\GraduateApp\CC2530DB\..\..\..\..\..\Compon #
#                          ents\zmac\ -I C:\Users\PC\Desktop\ZStack-2.5.1a\Pr #
#                          ojects\zstack\Samples\GraduateApp\CC2530DB\..\..\. #
#                          .\..\..\Components\zmac\f8w\ -Ohz                  #
#    List file          =  C:\Users\PC\Desktop\ZStack-2.5.1a\Projects\zstack\ #
#                          Samples\GraduateApp\CC2530DB\EndDeviceEB\List\ligh #
#                          t.lst                                              #
#    Object file        =  C:\Users\PC\Desktop\ZStack-2.5.1a\Projects\zstack\ #
#                          Samples\GraduateApp\CC2530DB\EndDeviceEB\Obj\light #
#                          .r51                                               #
#                                                                             #
#                                                                             #
###############################################################################

C:\Users\PC\Desktop\ZStack-2.5.1a\Projects\zstack\Samples\GraduateApp\Source\light.c
      1          #include <ioCC2530.h>

   \                                 In  segment SFR_AN, at 0x90
   \   union <unnamed> volatile __sfr _A_P1
   \                     _A_P1:
   \   000000                DS 1

   \                                 In  segment SFR_AN, at 0xfe
   \   unsigned char volatile __sfr P1DIR
   \                     P1DIR:
   \   000000                DS 1
      2          #include "OnBoard.h"
      3          #include "hal_adc.h"
      4          #include "light.h"
      5          
      6          //要修改的地方
      7          #define DATA_PIN P1_5                       //数字引脚
      8          #define DATA_PIN_INPUT  (P1DIR &= ~0x20)    //输入模式
      9          

   \                                 In  segment BANKED_CODE, align 1, keep-with-next
     10          uint8 GetLight(void)
   \                     GetLight:
     11          {
   \   000000   74F0         MOV     A,#-0x10
   \   000002   12....       LCALL   ?BANKED_ENTER_XDATA
   \   000005                ; Saved register size: 16
   \   000005                ; Auto size: 0
     12            uint8 temp = 0;   //百分比的整数值
     13            float vol = 0.0;  //adc采样电压
     14            //P0_6引脚,adc第6通道,14位有效
     15            uint16 adc=HalAdcRead(HAL_ADC_CHANNEL_6,HAL_ADC_RESOLUTION_14);
   \   000005                ; Setup parameters for call to function HalAdcRead
   \   000005   7A04         MOV     R2,#0x4
   \   000007   7906         MOV     R1,#0x6
   \   000009   12....       LCALL   ??HalAdcRead?relay
   \   00000C   8A..         MOV     ?V0 + 0,R2
   \   00000E   8B..         MOV     ?V0 + 1,R3
   \   000010   A8..         MOV     R0,?V0 + 0
   \   000012   A9..         MOV     R1,?V0 + 1
     16            
     17            if(adc>8192)      //2^13,最大采样值8192(因为最高位是符号位)
   \   000014   C3           CLR     C
   \   000015   E8           MOV     A,R0
   \   000016   9401         SUBB    A,#0x1
   \   000018   E9           MOV     A,R1
   \   000019   9420         SUBB    A,#0x20
   \   00001B   4004         JC      ??GetLight_0
     18            {
     19              return 0;
   \   00001D   7900         MOV     R1,#0x0
   \   00001F   8039         SJMP    ??GetLight_1
     20            }
     21            adc = 8192-adc;   //反相一下，因为低湿度时AO口输出较高电平
     22                              //高湿度时AO口输出较低电平 
     23            
     24            vol=(float)((float)adc)/8192.0;   //转化为百分比 
     25            
     26            temp=(uint8)(vol*100);     //取百分比两位数字
     27            
     28            return temp;
   \                     ??GetLight_0:
   \   000021   E4           CLR     A
   \   000022   C3           CLR     C
   \   000023   98           SUBB    A,R0
   \   000024   F5..         MOV     ?V0 + 0,A
   \   000026   7420         MOV     A,#0x20
   \   000028   99           SUBB    A,R1
   \   000029   F5..         MOV     ?V0 + 1,A
   \   00002B   E4           CLR     A
   \   00002C   F5..         MOV     ?V0 + 2,A
   \   00002E   F5..         MOV     ?V0 + 3,A
   \   000030   78..         MOV     R0,#?V0 + 0
   \   000032   12....       LCALL   ?UL_TO_FLT
   \   000035   90....       MOV     DPTR,#__Constant_39000000
   \   000038   78..         MOV     R0,#?V0 + 4
   \   00003A   12....       LCALL   ?L_MOV_X
   \   00003D   78..         MOV     R0,#?V0 + 0
   \   00003F   79..         MOV     R1,#?V0 + 4
   \   000041   12....       LCALL   ?FLT_MUL
   \   000044   90....       MOV     DPTR,#__Constant_42c80000
   \   000047   78..         MOV     R0,#?V0 + 4
   \   000049   12....       LCALL   ?L_MOV_X
   \   00004C   78..         MOV     R0,#?V0 + 0
   \   00004E   79..         MOV     R1,#?V0 + 4
   \   000050   12....       LCALL   ?FLT_MUL
   \   000053   78..         MOV     R0,#?V0 + 0
   \   000055   12....       LCALL   ?FLT_TO_L
   \   000058   A9..         MOV     R1,?V0 + 0
   \                     ??GetLight_1:
   \   00005A   7F08         MOV     R7,#0x8
   \   00005C   02....       LJMP    ?BANKED_LEAVE_XDATA
     29          }
     30          

   \                                 In  segment BANKED_CODE, align 1, keep-with-next
     31          uint8 GetlightH_L(void) //获取光敏电阻的数字引脚信号
   \                     GetlightH_L:
     32          {
   \   000000                ; Saved register size: 0
   \   000000                ; Auto size: 0
     33            DATA_PIN_INPUT;   //输入模式
   \   000000   53FEDF       ANL     0xfe,#0xdf
     34            if(DATA_PIN)      //低于阈值，返回2；否则返回1
   \   000003   A295         MOV     C,0x90.5
   \   000005   5004         JNC     ??GetlightH_L_0
     35              return 2;
   \   000007   7902         MOV     R1,#0x2
   \   000009   8002         SJMP    ??GetlightH_L_1
     36            return 1;
   \                     ??GetlightH_L_0:
   \   00000B   7901         MOV     R1,#0x1
   \                     ??GetlightH_L_1:
   \   00000D   02....       LJMP    ?BRET
   \   000010                REQUIRE P1DIR
   \   000010                REQUIRE _A_P1
     37          }

   \                                 In  segment XDATA_ROM_C, align 1
   \                     __Constant_39000000:
   \   000000   00000039     DD 39000000H

   \                                 In  segment XDATA_ROM_C, align 1
   \                     __Constant_42c80000:
   \   000000   0000C842     DD 42C80000H

   \                                 In  segment BANK_RELAYS, align 1
   \                     ??GetLight?relay:
   \   000000   12....       LCALL   ?BDISPATCH
   \   000003   ......       DC24    GetLight

   \                                 In  segment BANK_RELAYS, align 1
   \                     ??GetlightH_L?relay:
   \   000000   12....       LCALL   ?BDISPATCH
   \   000003   ......       DC24    GetlightH_L

   Maximum stack usage in bytes:

     Function        ISTACK PSTACK XSTACK
     --------        ------ ------ ------
     GetLight            0      0     16
       -> HalAdcRead     0      0     32
     GetlightH_L         0      0      0


   Segment part sizes:

     Function/Label      Bytes
     --------------      -----
     _A_P1                  1
     P1DIR                  1
     GetLight              95
     GetlightH_L           16
     __Constant_39000000    4
     __Constant_42c80000    4
     ??GetLight?relay       6
     ??GetlightH_L?relay    6

 
 111 bytes in segment BANKED_CODE
  12 bytes in segment BANK_RELAYS
   2 bytes in segment SFR_AN
   8 bytes in segment XDATA_ROM_C
 
 123 bytes of CODE  memory
   0 bytes of CONST memory (+ 8 bytes shared)
   0 bytes of DATA  memory (+ 2 bytes shared)

Errors: none
Warnings: none
